:10000000C4C000003AC20000DEC00000DCC0000036
:10001000DAC00000D8C00000D6C00000D4C0000084
:10002000D2C00000D0C000000C94380CCCC000003E
:10003000CAC00000C8C00000C6C00000C4C00000A4
:10004000C2C000003EC20000BEC00000BCC0000034
:10005000BAC000004BC30000B6C00000B4C000002E
:10006000B2C00000B0C00000AEC00000ACC00000D4
:10007000AAC00000A8C00000A6C00000A4C00000E4
:1000800076C20000A0C000009EC000009CC000001E
:100090009AC0000098C0000026034C00550046009E
:1000A00041002000580050004C00410049004E0023
:1000B00020004200720069006400670065000000D3
:1000C00018034400650061006E00200043006100D9
:1000D0006D0065007200610000000403090409025C
:1000E0003E0002010080320904000001020201000A
:1000F000052400100104240206052406000107055A
:1001000082030800FF09040100020A00000007053D
:1001100004021000050705830210000512011001FA
:1001200002000010EB034B2000000102DC011C0365
:10013000300030003000320030003000300031003C
:100140003200330034003500000000001803410085
:100150005600520049005300500020006D006B0013
:100160004900490000000C03410054004D004500C7
:100170004C0000000403090412011001FF000010EC
:10018000EB03042100020102030111241FBECFEF83
:10019000D0E2DEBFCDBF11E0A0E0B1E0E8E4F4E2E0
:1001A00000E00BBF02C007900D92AE39B107D9F73E
:1001B00012E0AEE9B1E001C01D92AC3CB107E1F73D
:1001C000C2D00C9422121CCF95B1809590648923E3
:1001D00085B908958EB3843069F4ABD382E08093FF
:1001E000E9008091E80082FF05C080E4EDDFAAD23B
:1001F00080E0EACF08950F931F93CF93DF938EB3E0
:10020000843009F068C08FB7F8942091AE02309125
:10021000AF028FBF8091AC029091AD0228173907D1
:1002200009F180E091E00E94B11197FD1BC0E4EA62
:10023000F2E0A081B1818C938081918101969183BC
:100240008083268137818217930721F484819581E9
:10025000918380832FB7F894828593850196938745
:1002600082872FBF8FB7F894C091BA02D091BB029A
:100270008FBFA89903C0C93CD10548F1A89A00EBEB
:1002800012E023C0E091B202F091B30280E091E06D
:1002900060810E944D118823D1F4F80182819381FD
:1002A000019693838283268137818217930721F4F5
:1002B00084819581938382832FB7F8948285938577
:1002C0000197938782872FBF21972097D9F680E0E7
:1002D00091E00E94A211DF91CF911F910F9108959B
:1002E00084B7877F84BF88E10FB6F894809360005D
:1002F000109260000FBE90E080E80FB6F8948093F3
:100300006100909361000FBE85B7806885BF85B797
:10031000806885BF8F9A8FE19EE40197F1F700C056
:1003200000008FB18095881F8827881F80939E01C9
:1003300085B78F7785BF85B78F7785BF84D0269A9D
:100340002E9A0C94220CCCDF80E43EDF78948091CE
:100350009E01882311F44FDF01C03CDF0E94611031
:10036000F6CFCF9380919E018823A9F580E091E09C
:100370000E942911C82F85E085BDE4EAF2E02FB77D
:10038000F8948FE991E091838083938382839583AE
:1003900084838FE192E09783868380E890E0918761
:1003A0008087138612862FBFE0EBF2E04FB7F894F8
:1003B0002FE132E03183208333832283358324830A
:1003C0002FE932E037832683918780871386128650
:1003D0004FBF39D007C082E060E842E30E94410B82
:1003E000C82F99D1CC2311F080E001C080E4ECDE6D
:1003F000CF91089580919E01882321F480E091E0BF
:100400000C947C10089580E4DFCE80E4DDCEFC0106
:10041000248935894689578960E072E18AE790E04E
:100420000E94E611215030403093890020938800CB
:100430003093990020939800089570919E0177233E
:1004400009F4F2C01FC1599A519A589A22E0209398
:10045000690081E08DBB80E493E0909389008093F4
:100460008800909399008093980020936F002093C8
:10047000710089E08093910008951F920F920FB64A
:100480000F9211248F939F9388E080939F02809115
:1004900088009091890096958795909581959F4FBA
:1004A0009093850080938400489904C01DBA89E028
:1004B000809381009F918F910F900FBE0F901F909E
:1004C00018951F920F920FB60F920BB60F92112430
:1004D0002F933F938F939F93AF93BF93EF93FF938C
:1004E00089B1817020919F02222371F09091A00226
:1004F00096959093A002215020939F02882341F16A
:1005000090689093A00224C01092810091E09CBB5F
:100510009DBB8823E9F0E0EBF2E0A081B1818091FE
:10052000A0028C93808191810196918380832681A2
:1005300037818217930721F4848195819183808389
:100540002FB7F894828593850196938782872FBF72
:10055000FF91EF91BF91AF919F918F913F912F911B
:100560000F900BBE0F900FBE0F901F9018951F920B
:100570000F920FB60F920BB60F9211242F933F9349
:100580008F939F93AF93BF93EF93FF938091A102BB
:10059000882371F08091A20280FF02C0599801C0A7
:1005A000599A86958093A2028091A10281502BC016
:1005B00080919F02882349F52FB7F8948091AE026D
:1005C0009091AF022FBF009701F15998E4EAF2E051
:1005D000A281B3812D91B383A28386819781A817CD
:1005E000B90721F484819581938382833FB7F8947E
:1005F000828593850197938782873FBF822F80955D
:100600008093A20289E08093A102FF91EF91BF91B4
:10061000AF919F918F913F912F910F900BBE0F90B3
:100620000FBE0F901F901895D9011C92923029F09F
:10063000933041F09130E9F417C08EE390E0EEED95
:10064000F0E01BC0813041F0813018F0823089F435
:1006500006C0EAEDF0E005C0E0ECF0E002C0E8E939
:10066000F0E0849190E009C082E190E0ECE1F1E0FB
:1006700004C080E090E0E0E0F0E0DA011196FC9345
:10068000EE930895F9011082923029F0933049F0E9
:10069000913019F51DC0908380E290E0EBE1F1E02C
:1006A00020C0813051F0813028F0823049F0833011
:1006B000A1F409C0E4E7F1E008C0E6E6F1E005C016
:1006C000ECE4F1E002C0EEE2F1E0849190E009C0D8
:1006D00082E190E0E8E7F1E004C080E090E0E0E053
:1006E000F0E0DA011196FC93EE93089578941F924E
:1006F0000F920FB60F9211248F938AB5882321F0A1
:100700008AB581508ABD01C015BC8F910F900FBE74
:100710000F901F901895EAE7F0E087EA80838298AF
:10072000AEE7B0E08C9184608C9382E480937C008F
:100730008081806480838DE487BD82E084BD809366
:100740006E00EAC00F931F93CF93DF930F92CDB744
:10075000DEB71091F10084E68ABD85E085BD1630D4
:1007600009F45DC0173048F4113089F0113008F4F5
:1007700098C0143008F095C027C0103509F489C01E
:10078000113509F484C01A3009F08BC06EC0809115
:10079000E8008B778093E80082E08093E900809105
:1007A000EC0081608093EC001093F1001092F10056
:1007B0008AE08093F1008BE391E06AE070E040E032
:1007C00050E00E94EF0C86C00091F100123011F44D
:1007D0006091F1008091E8008B778093E80082E0DF
:1007E0008093E9008091EC0081608093EC0010938D
:1007F000F100802F6983B7D06981123039F481FF0D
:100800000CC01092F100802FBED064C080FF05C0E4
:100810001092F100802FAFD05BC080EC59C08DEBFF
:1008200092E064E070E040E050E00E948F0D809123
:10083000E8008B778093E80082E08093E900809164
:10084000EC0081608093EC008091BD029091BE022B
:10085000A091BF02B091C002B7FF03C081E08093B6
:10086000BC0286E08093F1000FC08091E8008B7796
:100870008093E80082E08093E9008091EC00816041
:100880008093EC001093F1001092F10023C0ACD1E2
:1008900026C0DAD124C08091E8008B778093E800ED
:1008A0005FD78091F2009091F3008034910599F325
:1008B0008091E8008B778093E80082E08093E900E4
:1008C0008091EC0081608093EC001093F10089EC42
:1008D0008093F1008091E8008E778093E80015BC4A
:1008E0003FD782E08093E9008091EC008E7F809377
:1008F000EC000F90DF91CF911F910F9108959AE036
:10090000E6E4F1E02081821729F033969150D1F787
:10091000E0E0F0E0CF010895CF93DF938EE9EFDFC1
:10092000EC0180E090E00E9408128A83DF91CF9171
:10093000089584E9E4DFEAE7F0E020812061208384
:10094000409178005091790022E330E0429FB0015D
:10095000439F700D529F700D1124272F26952695C9
:10096000FC0122830895CBDF009719F0FC018181FF
:10097000089580E00895C3DF009719F0FC0182819B
:10098000089580E008951F93CF93DF930F92CDB722
:10099000DEB7182F6983B3DFFC016981009739F056
:1009A00062831E3921F480E090E00E9410120F90C3
:1009B000DF91CF911F9108959B01692F782F832F8D
:1009C000922F0895AF92BF92CF92DF92EF92FF9253
:1009D0000F931F93CF93DF93CDB7DEB7C850D140AD
:1009E0000FB6F894DEBF0FBECDBFCE01019668E012
:1009F00070E040E050E00E943F0D6B817C818D8172
:100A00009E81DADFDC01CB018B839C83AD83BE83C7
:100A10007F8168856F837887CE01099640E050E03A
:100A20000E943F0D8F81988509968F739070009773
:100A300031F48091E8008B778093E80091D6809123
:100A4000E8008B778093E80082E08093E900809152
:100A5000EC0081608093EC008091A302882379F5FB
:100A600029812150EB80FC800D811E812630A0F46D
:100A700030E0F901EC58FE4F4081F901E658FE4F95
:100A80008081F901E058FE4F60812A573E4FF901FD
:100A90009081992371F003C066E283E24EE2AF8059
:100AA000B8842A8199E0C92ED12CCC0EDD1E04D445
:100AB0000EC0842FB801A7012985DAD308C04F8161
:100AC00058858B819C81BE01675F7F4F87D58823C6
:100AD00011F080E001C083E090E59093F10094E094
:100AE0009093F1008093F1008091E8008E778093DD
:100AF000E800C85FDE4F0FB6F894DEBF0FBECDBF73
:100B0000DF91CF911F910F91FF90EF90DF90CF90E9
:100B1000BF90AF900895CF93DF93CDB7DEB7C750A6
:100B2000D1400FB6F894DEBF0FBECDBFCE01019607
:100B300067E070E040E050E0A2D76A817B818C8161
:100B40009D813ADFDC01CB018A839B83AC83BD832B
:100B50008E819F819E838F838091E8008B77809325
:100B6000E80082E08093E9008091EC00816080934E
:100B7000EC008091A3022E813F81882349F46A8191
:100B80007B818C819D81AE01485F5F4F37D307C069
:100B90008A819B81BE01685F7F4FA901F3D48823BE
:100BA00011F080E001C083E090E59093F10095E0C2
:100BB0009093F1008093F100882339F46E817F8156
:100BC000CE01089640E050E00AD78091E8008E7789
:100BD0008093E800C95FDE4F0FB6F894DEBF0FBE0A
:100BE000CDBFDF91CF910895CF93DF930F92CDB713
:100BF000DEB7CE01019661E070E040E050E03FD703
:100C00008091E8008B778093E80082E08093E90090
:100C10008091EC0081608093EC0089818093A30235
:100C200081E58093F1008981813011F080E001C07D
:100C300080EC8093F1008091E8008E778093E8004B
:100C40000F90DF91CF910895CF93DF93CDB7DEB7AB
:100C500029970FB6F894DEBF0FBECDBF8091F1008B
:100C6000843009F496C0853048F4823089F18330AD
:100C700008F04AC0813009F029C10AC0863009F461
:100C80008CC0863008F487C0873009F01FC1C9C006
:100C90008091E8008B778093E80082E08093E90000
:100CA0008091EC0081608093EC008091A302882306
:100CB00011F420D205C0823011F41BD401C080E0B1
:100CC00090E59093F10091E09093F1008927F7C0AF
:100CD0009091E8009B779093E8008093E9008091E1
:100CE000EC0081608093EC008091A302882311F4D2
:100CF00043D201C03CD480E58093F10082E0809330
:100D0000F1001092F100DDC0CE01059665E070E0C3
:100D100040E050E0B4D66E817F81888599854CDEB5
:100D2000DC01CB018E839F83A887B9878091E8007F
:100D30008B778093E80082E08093E9008091EC005B
:100D400081608093EC008091A302ED81882379F487
:100D5000E150E83028F4F0E0E459FE4F808101C012
:100D600080E04E815F816885798517D308C0E130C6
:100D700011F480E101C084E16E817F8167D4882312
:100D800011F080E001C083E090E59093F10093E0E2
:100D900094C018DE9BC0BFDE99C0CE01059661E00D
:100DA00070E040E050E06BD68091E8008B77809354
:100DB000E80082E08093E9008091EC0081608093FC
:100DC000EC008091A302882391F4ED81E150E230A0
:100DD00028F4F0E0E457FE4F808101C088E7BE01AF
:100DE0006F5F7F4FD4D1882321F080E003C081E082
:100DF00001C083E090E59093F10096E09093F100BC
:100E00008093F100882309F05CC089819A81AB81CD
:100E1000BC81CD01AA27BB278093F10099818A81EB
:100E20004CC08091F100833031F1843028F481305E
:100E300041F0823081F516C0843011F1853059F5CA
:100E400024C08091F1009091F1002091F100309147
:100E5000F100309368012093690190936A018093B7
:100E60006B0117C08091F1009091F10090936601A1
:100E7000809367010EC08091F1008093650109C0E5
:100E80008091F1008093640104C08091F100809111
:100E9000F10080E001C081E09091E8009B779093A1
:100EA000E80092E09093E9009091EC0091609093BB
:100EB000EC0090E59093F10097E09093F10080931F
:100EC000F1008091E8008E778093E80029960FB6B4
:100ED000F894DEBF0FBECDBFDF91CF9108954D993D
:100EE000FECF4D9BFECF4D99FECF5B9A539A8091DA
:100EF000C9008F7E8093C9008091C900886080936B
:100F0000C90081E08093C10208958091C80086FFE6
:100F1000FCCF8091C80080648093C8008091C90094
:100F2000877F8093C9008091C90080618093C90048
:100F300053985B981092C10208958091C102882352
:100F400009F0E3DF80EC8093C8001092C900109292
:100F5000CA008AB1877D8AB98BB1837D8BB9089528
:100F60008091C102882309F0D0DF8091C800806C95
:100F70008093C8001092C9001092CA008AB1877D80
:100F80008AB98BB1837D8BB924982C980895CF931F
:100F9000DF930F92CDB7DEB79091C102992319F478
:100FA00089839DDF89819091C80095FFFCCF909146
:100FB000C80090649093C8008093CE000F90DF919A
:100FC000CF9108958091C102882309F09EDF80911E
:100FD000C80087FD03C08AB58823C9F78091CE0079
:100FE00008958091C102882309F479DF8CE04D993E
:100FF000FECF4D9BFECF4D99FECF8150C1F7089596
:101000001092C102249A2C9882E08A95F1F700C0D0
:101010008AB188628AB952988FE090E09093CD00AF
:101020008093CC0088E08093C9008FE68093CA004B
:10103000D8DFD7CF1092C1028AB188628AB952989C
:101040005B9A82E08A95F1F700C08FE090E0909380
:10105000CD008093CC0088E08093C9008FE6809318
:10106000CA00BFDFBECF1F93CF93DF9300D0CDB7B1
:10107000DEB7182F862F79839A8389DF7981872FAE
:1010800086DF812F84DF9A81892F81DF0F900F9077
:10109000DF91CF911F91089590E0A0E0B0E04091E2
:1010A00068015091690160916A0170916B01842B14
:1010B000952BA62BB72BBC01CD01D5CF80E867DFE0
:1010C00081DF9AB5992321F081FFF8CF81E008955F
:1010D00080E008958BE65BDF8FE0DEDF80E257DFA4
:1010E00071DF9AB5992321F087FDF8CF81E008954B
:1010F00080E00895CF92DF92EF92FF920F931F93BB
:10110000CF93DF93CDB7DEB728970FB6F894DEBF45
:101110000FBECDBF8FDF81EC3ADF89E538DF82EC8F
:1011200036DF82E034DF80EE32DF8E01075F1F4F53
:101130007E010894E11CF11C6701F601AEE8B1E004
:1011400088E00D9001928150E1F7F80182918F01C2
:101150001EDF0E151F0589F7B1DF28960FB6F8942C
:10116000DEBF0FBECDBFDF91CF911F910F91FF90DA
:10117000EF90DF90CF900895A1DF81EC08DF80E051
:1011800006DF81E804DF1EDF8823B9F7D6CE1F9380
:10119000CF93DF93182FEB01188219821A821B82DA
:1011A00099DF882331F18CE4F2DE8AE075DF812F4C
:1011B000EEDE8CE4ECDE8BE06FDF81E0E8DE7EDFEC
:1011C0008823B9F087DF8823A1F08BE6E0DE84E096
:1011D00063DF80EADCDE82E0DADE84E2D8DEF2DEA3
:1011E0008883F0DE8983EEDE8A839AB581E09923D5
:1011F00009F480E0DF91CF911F910895CF92DF92A3
:10120000EF92FF920F931F93CF93DF936B017C01BB
:101210008A01E9015FDF882309F18CE4B8DE8AE006
:101220003BDF83E4B4DE8BE6B2DEC701B6011BDF31
:1012300080EAADDE8C2F8150AADE84E2A8DE04C0F5
:10124000C1DEF80181938F01209721F08AB52197A3
:101250008823B1F79AB581E0992309F480E0DF9102
:10126000CF911F910F91FF90EF90DF90CF90089555
:10127000CF92DF92EF92FF92CF93DF93C82F6A0154
:101280007B01D22F27DF882379F08CE480DE8AE08F
:1012900003DF8C2F7CDE8CE47ADEC701B601E3DE4F
:1012A0008D2F75DE81E001C080E0DF91CF91FF904E
:1012B000EF90DF90CF9008953F924F925F926F92A0
:1012C0007F928F929F92AF92BF92CF92DF92EF92D6
:1012D000FF920F931F93CF93DF93882E962E342E79
:1012E00027013801E601122F20FF10C0F3DE88230A
:1012F00009F440C08CE44BDE8AE0CEDE892D47DE67
:101300008CE445DE8BE0C8DE81E041DEA114B1044F
:10131000E9F0E0DE882371F18CE439DE8AE0BCDE9E
:10132000882D35DE8BE633DEC301B2019CDE80EA18
:101330002EDE8A2D81502BDE84E629DE899127DE80
:101340000894A108B108A114B104C1F711FF10C09D
:10135000C1DE882379F08CE41ADE8AE09DDE832DDD
:1013600016DE8CE414DEC301B2017DDE80E00FDE08
:1013700081E001C080E0DF91CF911F910F91FF903C
:10138000EF90DF90CF90BF90AF909F908F907F9025
:101390006F905F904F903F900895CF92DF92EF92C1
:1013A000FF92CF93C82F6A017B0194DE882309F452
:1013B00055C08CE4C03429F4EADD8AE06DDE80E4B7
:1013C00038C0C03309F03CC0E2DD8AE065DE86E368
:1013D000DEDD8CE4DCDD8BE05FDE81E0D8DD7ADE13
:1013E000882309F43BC08CE4D2DD8AE055DE83E338
:1013F000CEDD8BE6CCDDC701B60135DE80EAC7DD88
:10140000809166018150C3DD84E6C1DDC0E003C088
:1014100080E0BDDDCF5F2C2F30E0809166019091A0
:10142000670128173907A0F38CE4B1DD8AE034DEC8
:1014300080E3ADDD8CE4ABDD8BE02EDE81E00BC024
:10144000A6DD8AE029DE8C2FA2DD8CE4A0DDC701B9
:10145000B60109DE80E09BDD31DE01C080E0CF9186
:10146000FF90EF90DF90CF900895982F9F70906934
:10147000282F30E020733070220F331F892F822BEA
:1014800086CD1F93CF93DF930F92CDB7DEB7182F82
:1014900088E699837CDD812F7ADD89E678DD998184
:1014A000892F75DD0F90DF91CF911F91089580E80E
:1014B0006EDD88DD9AB5992321F081FFF8CF81E0B8
:1014C000089580E0089520916401822F8F708061DB
:1014D00030E020733070220F331F822B58DD72DD15
:1014E0009AB5992321F087FDEECF81E0089580E041
:1014F0000895CF92DF92EF92FF920F931F93CF93B5
:10150000DF93CDB7DEB728970FB6F894DEBF0FBED6
:10151000CDBF76DD82EC3BDD82E039DD80EE37DD6C
:101520008E01075F1F4F7E010894E11CF11C6701CB
:10153000F601A6E9B1E088E00D9001928150E1F753
:10154000F80182918F0123DD0E151F0589F7AFDFAA
:1015500028960FB6F894DEBF0FBECDBFDF91CF91B6
:101560001F910F91FF90EF90DF90CF9008959FDF34
:1015700080EC0DDD80E00BDD81E809DD23DD8823D3
:10158000B9F7EECCEF92FF920F931F93CF93DF93B7
:101590007C018B01EA0197DF8823C1F0809165010E
:1015A00064DF80E0F4DCC7016CDF06C084E2EFDCBE
:1015B00009DDF80181938F01209721F08AB52197E9
:1015C0008823A1F79AB581E0992309F480E0DF919F
:1015D000CF911F910F91FF90EF900895EF92FF929E
:1015E0000F931F93CF93DF937C018B01EA016BDF95
:1015F000882321F1C0FF06C0F801EC0FFD1F8FEF1B
:10160000808321968091650130DF8DE1C0DCC701C8
:1016100038DF10C058DF882389F084E6B8DCF80191
:101620008081B5DC84E6B3DCF80181810E5F1F4F59
:10163000AEDC2297209771F781E001C080E0DF9156
:10164000CF911F910F91FF90EF9008951F93CF932B
:10165000DF93182FEB0137DF882371F0809165014C
:1016600004DF812F94DCCE0181600BDF80E68FDC0C
:1016700080E08DDC28DF01C080E0DF91CF911F91F9
:1016800008958F708093E900EBEEF0E08081816037
:101690008083EDEEF0E010826093EC004083809157
:1016A000EE00881F8827881F08950F931F93CF93FC
:1016B000DF93162FEC0100E02AC09881992329F1CD
:1016C0006B81E981FA812C81892F8F70873018F521
:1016D0006295660F660F607C991F9927991F692B89
:1016E000223010F096E001C092E028E030E040E0C7
:1016F00003C04F5F220F331F2E173F07D0F34295D1
:10170000407F492BBEDF882331F00F5F25960117FC
:10171000A1F681E001C080E0DF91CF911F910F9190
:1017200008958091C40287FF11C003C08EB388233F
:10173000B1F08091E80082FFF9CF8091E8008B77CB
:101740008093E80008958EB3882349F08091E800E3
:1017500080FFF9CF8091E8008E778093E8000895AC
:101760008091E4009091E50045E601C0C901209117
:10177000EC0020FF22C02091E80020FD14C02EB311
:10178000222399F0253099F02091EB0025FD11C01E
:101790002091E4003091E5002817390741F34150CA
:1017A00029F784E0089580E0089582E0089583E0B9
:1017B000089581E0089580E008952091E80022FFD7
:1017C000DECFF9CF0F931F93CF93DF9344D04BD04D
:1017D000C8EDD0E088818F7788838881806888838E
:1017E00088818F7D8883E7EDF0E080818068808349
:1017F00019BC1EBA1092C20200EE10E0F8018081FE
:101800008B7F808388818160888380E060E042E113
:1018100038DFE1EEF0E080818E7F8083E2EEF0E061
:10182000808181608083808188608083F8018081ED
:101830008E7F8083888180618883DF91CF911F9123
:101840000F910895E7EDF0E080818160808381E071
:101850008093C302B7CFE8EDF0E080818C7F808376
:101860001092E20008951092DA001092E1000895BB
:101870001F920F920FB60F920BB60F9211242F9357
:101880003F934F935F936F937F938F939F93AF9308
:10189000BF93EF93FF938091DA0080FF1DC080918A
:1018A000D80080FF19C08091DA008E7F8093DA0023
:1018B0008091D90080FF0CC08CE089BD8EE089BD8D
:1018C00009B400FEFDCF81E08EBB0E94030204C07C
:1018D00019BC1EBA0E9405028091E10080FF17C06A
:1018E0008091E20080FF13C08091E2008E7F8093A0
:1018F000E2008091E20080618093E2008091D80054
:1019000080628093D80019BC85E08EBBD9D38091CA
:10191000E10084FF2CC08091E20084FF28C08CE0AD
:1019200089BD8EE089BD09B400FEFDCF8091D8004D
:101930008F7D8093D8008091E1008F7E8093E100BD
:101940008091E2008F7E8093E2008091E2008160CE
:101950008093E2008091C202882321F48091E30009
:1019600087FF02C084E001C081E08EBBA9D38091D3
:10197000E10083FF21C08091E20083FF1DC08091C0
:10198000E100877F8093E10082E08EBB1092C2026B
:101990008091E1008E7F8093E1008091E2008E7F54
:1019A0008093E2008091E20080618093E20080E019
:1019B00060E042E166DE84D3FF91EF91BF91AF9189
:1019C0009F918F917F916F915F914F913F912F9157
:1019D0000F900BBE0F900FBE0F901F901895AF92F7
:1019E000BF92CF92DF92EF92FF921F93CF93DF933C
:1019F000EC017B016A01B4DE182F8823A9F5C1141C
:101A0000D10439F0F60120813181E21AF30AC20FC4
:101A1000D31FAA24BB2423C08091E80085FD16C0F3
:101A20008091E8008E778093E8004BD3C114D104F5
:101A300049F0F601808191818A0D9B1D91838083FD
:101A400015E012C08DDE882351F00DC0899180937E
:101A5000F1000894E108F1080894A11CB11CE114FC
:101A6000F104D1F601C0182F812FDF91CF911F9182
:101A7000FF90EF90DF90CF90BF90AF900895AF921E
:101A8000BF92CF92DF92EF92FF921F93CF93DF939B
:101A9000EC017B016A0164DE182F8823A9F5C114CB
:101AA000D10439F0F60120813181E21AF30AC20F24
:101AB000D31FAA24BB2423C08091E80085FD16C053
:101AC0008091E8008B778093E800FBD2C114D104A9
:101AD00049F0F601808191818A0D9B1D918380835D
:101AE00015E012C03DDE882351F00DC08091F10059
:101AF00089930894E108F1080894A11CB11CE11431
:101B0000F104D1F601C0182F812FDF91CF911F91E1
:101B1000FF90EF90DF90CF90BF90AF900895AF927D
:101B2000BF92DF92EF92FF920F931F93CF93DF93B9
:101B3000EC017B015A0114DED82E8823E1F58701E0
:101B4000015010400C0F1D1FA114B10439F0F50114
:101B500080819181E81AF90A081B190BC0E0D0E0D6
:101B600025C08091E80085FD17C08091E8008B7743
:101B70008093E800A6D2A114B10451F0F501808150
:101B800091818C0F9D1F9183808355E0D52E13C0CA
:101B9000E7DD882359F00EC08091F100F8018083C1
:101BA000015010400894E108F1082196E114F10475
:101BB000C1F601C0D82E8D2DDF91CF911F910F91CD
:101BC000FF90EF90DF90BF90AF9008952091CA02F0
:101BD0003091CB022617370720F4B901FC0120E031
:101BE00035C061157105D1F72091E8002E7720935B
:101BF000E800F4CF8EB38823F1F18530C1F18091F4
:101C0000E80083FD36C08091E80082FD2AC0809103
:101C1000E80080FF1BC08091F2009091F30006C0A5
:101C200021912093F100615070400196611571057A
:101C300019F080319105A0F321E08031910509F080
:101C400020E08091E8008E778093E80061157105AF
:101C500089F6222379F605C08EB3882361F085309A
:101C600061F08091E80082FFF7CF80E0089583E083
:101C7000089581E0089582E0089583E00895209119
:101C8000CA023091CB022617370720F4B901FC01B4
:101C900020E037C061157105D1F72091E8002E775B
:101CA0002093E800F4CF8EB3882309F43FC0853039
:101CB000C9F18091E80083FD37C08091E80082FD82
:101CC0002BC08091E80080FF1CC08091F2009091B1
:101CD000F30007C024912093F100319661507040C9
:101CE00001966115710519F08031910598F321E095
:101CF0008031910509F020E08091E8008E77809393
:101D0000E8006115710579F6222369F605C08EB3E6
:101D1000882361F0853061F08091E80082FFF7CF81
:101D200080E0089583E0089581E0089582E00895B9
:101D300083E00895EF92FF920F931F93CF93DF9369
:101D40008B012091CA023091CB022617370720F46D
:101D500089017C0180E03BC061157105D1F72091BC
:101D6000E8002E772093E800F4CF9EB3992309F47E
:101D700041C0953009F440C09091E80093FD38C00F
:101D80009091E80092FD2EC09091E80090FF1FC056
:101D9000C091F200D091F3000AC0C70139D38093FB
:101DA000F1000894E11CF11C01501040219601152E
:101DB000110519F0C031D10580F381E0C031D105A2
:101DC00009F080E09091E8009E779093E80001157B
:101DD000110559F6882349F605C08EB3882351F0C2
:101DE000853051F08091E80082FFF7CF80E005C098
:101DF00081E003C082E001C083E0DF91CF911F91B9
:101E00000F91FF90EF9008950F931F93CF93DF935F
:101E1000CDB7DEB7AD970FB6F894DEBF0FBECDBF1E
:101E200088E0E4ECF2E09091F10091938150D9F7D1
:101E30000E94FA018091E80083FF29C18091C402C9
:101E40009091C502953009F46CC0963040F4913001
:101E500069F1913070F0933009F019C127C09830C2
:101E600009F4E7C0993009F4F6C0963009F00FC1C3
:101E70007BC0803881F0823809F009C18091C802A6
:101E80008F708093E9009091EB0081E095FF80E0F6
:101E90001092E90001C080E09091E800977F909354
:101EA000E8008093F1001092F100CEC0882319F071
:101EB000823009F0ECC08F71823009F0E8C0809167
:101EC000C602882341F52091C8022F7009F4DFC0B3
:101ED0002093E9008091EB0080FF1DC08091C50236
:101EE000833021F48091EB00806213C08091EB007D
:101EF00080618093EB0081E090E002C0880F991F21
:101F00002A95E2F78093EA001092EA008091EB00B4
:101F100088608093EB001092E9008091E800877F51
:101F200096C0882309F0B3C01091C6021F770FB77F
:101F3000F8948091E800877F8093E800F2DB80913D
:101F4000E80080FFFCCF8091E3008078812B8093B4
:101F5000E30080688093E300112311F083E001C067
:101F600082E08EBB0FBF93C08058823008F08FC0D4
:101F70008091C6029091C70223E08C3D9207A1F5A3
:101F800083E08D838AE28C835FB7F894DE01149638
:101F900080E090E04EE061E2E42FF0E060935700D3
:101FA000E49180FF03C0E295EF704F5FEF702E2F3A
:101FB00030E0EA3018F0295C3F4F02C0205D3F4F0F
:101FC00013963C932E9312970196129684319105A5
:101FD00019F75FBF8091E800877F8093E800CE010A
:101FE00004966AE270E01EC06091C802AE014E5FC6
:101FF0005F4F9E012F5F3F4F0E941D02BC01009763
:1020000009F445C08091E800877F8093E80029812A
:102010008A819B81222311F432DE05C0213011F424
:1020200089DE01C0D3DD8091E8008B778093E800E2
:102030002EC0803861F58091E800877F8093E800AA
:102040008091C2028093F1008091E8008E778093A6
:10205000E80067DB1CC08823D1F49091C60292305F
:10206000B0F48091E800877F8093E8009093C202EB
:1020700058DB8091C202882321F48091E30087FF1E
:1020800002C084E001C081E08EBB0E94B10180915A
:10209000E80083FF0AC08091EB0080628093EB0030
:1020A0008091E800877F8093E800AD960FB6F894A2
:1020B000DEBF0FBECDBFDF91CF911F910F9108956D
:1020C0000895CF938EB38823A9F08091E9008F7093
:1020D0009091EC0090FF02C0C0E801C0C0E0C82BA6
:1020E0001092E9008091E80083FF01C08DDECF707F
:1020F000C093E900CF910895CF93DF93EC018091D5
:10210000E80083FFA3C0888190E02091C80230914D
:10211000C9022817390709F099C08091C502813298
:1021200069F0823220F4803209F090C03CC08232E3
:1021300009F46BC0833209F089C07AC08091C4026F
:10214000813A09F083C08091E800877F8093E8009E
:102150008091E80080FFFCCF8C899D89AE89BF8982
:102160008093F100492F5A2F6B2F77274093F1006E
:10217000AD01662777274093F1008B2F9927AA2777
:10218000BB278093F100888D8093F100898D809327
:10219000F1008A8D8093F1008091E8008E77809322
:1021A000E800BFDA53C08091C402813209F04EC00A
:1021B0008091E800877F8093E80004C08EB3882375
:1021C00009F444C08091E80082FFF8CF3091F1001B
:1021D0002091F1009091F1008091F1003C8B2D8BCA
:1021E0009E8B8F8B8091F100888F8091F100898F79
:1021F0008091F1008A8F8091E8008B778093E800CE
:1022000090DACE010E94070221C08091C40281327F
:10221000E9F48091E800877F8093E80082DA80917A
:10222000C6029091C702998B888BCE01CED00EC08A
:102230008091C402813251F48091E800877F8093BD
:10224000E8006FDACE016091C602BFD0DF91CF9176
:102250000895CF93DF93EC014096FC018BE0DF0102
:102260001D928A95E9F782E08C83898783E08E87C7
:10227000CE01019661E019DA882359F0CE01069665
:1022800061E013DA882329F0CE010B9661E00DDAC4
:1022900001C080E0DF91CF910895CF93FC01C62F5C
:1022A0008EB38430E9F4448955896689778941156C
:1022B000510561057105A1F081818F708093E9005E
:1022C0008091E80085FD08C08091E8008E778093BA
:1022D000E80046DA882329F4C093F10080E001C0C9
:1022E00082E0CF910895FC018EB3843029F54489B2
:1022F0005589668977894115510561057105E1F0B8
:1023000081818F708093E9008091F2009091F300B9
:102310000097A1F09091E8008091E8008E7780937B
:10232000E80095FD0DC01CDA882359F49091E8006F
:102330009E779093E800089582E0089580E00895E4
:1023400080E008952EB3243059F4FC014489558966
:1023500066897789411551056105710509F0C3CF7B
:102360000895FC018EB3843051F5448955896689FE
:102370007789411551056105710509F186818F70D5
:102380008093E9008091E80082FF1CC08091F200F8
:102390009091F300009721F08091F10090E002C04D
:1023A0008FEF9FEF2091F2003091F300211531055E
:1023B00059F42091E8002B772093E80008958FEFDF
:1023C0009FEF08958FEF9FEF08950895A1E21A2ED1
:1023D000AA1BBB1BFD010DC0AA1FBB1FEE1FFF1FC9
:1023E000A217B307E407F50720F0A21BB30BE40B19
:1023F000F50B661F771F881F991F1A9469F7609560
:102400007095809590959B01AC01BD01CF01089519
:10241000F999FECF92BD81BDF89A992780B50895AC
:10242000262FF999FECF92BD81BDF89A019700B48D
:10243000021639F01FBA20BD0FB6F894FA9AF99A2D
:082440000FBE0895F894FFCFD0
:102448000083100000010410000001820800000150
:102458000000000000000000000000090220000148
:102468000100C0320904000002FF000000070582D5
:102478000240000A0705020240000A415652495329
:10248800505F4D4B320080010081010090010091A6
:1024980001019201119401219803069E0301A101F3
:1024A80000A4030032332000C0010001402068303E
:1024B800222A3218242C354C081A232333232323A9
:1024C8002626362626260101010000013839128900
:0E24D800AB45CDD888FF1289AB45CDD888FF23
:00000001FF
